:100000000C9458000C9480000C9480000C94800098
:100010000C9480000C9480000C9480000C94800060
:100020000C9480000C9480000C9480000C94800050
:100030000C9480000C9480000C9480000C94800040
:100040000C94E0030C9480000C94AE030C94880391
:100050000C9480000C9480000C9480000C94800020
:100060000C942A040C948000000000002500280055
:100070002B00040404040404040402020202020229
:10008000030303030303010204081020408001025C
:1000900004081020010204081020000000080002DB
:1000A00001000003040700000000000000004905F3
:1000B00011241FBECFEFD8E0DEBFCDBF11E0A0E01E
:1000C000B1E0E2E2FFE002C005900D92A839B1076D
:1000D000D9F723E0A8E9B1E001C01D92A430B2072E
:1000E000E1F710E0C8E5D0E004C02197FE010E94CE
:1000F0008907C735D107C9F70E9482050C948F077D
:100100000C94000008950895AF92BF92CF92DF92B1
:10011000EF92FF920F931F93CF93DF936C017B01BC
:100120008B01040F151FEB015E01AE18BF08C0174D
:10013000D10759F06991D601ED91FC910190F081C0
:10014000E02DC6010995892B79F7C501DF91CF9183
:100150001F910F91FF90EF90DF90CF90BF90AF90E5
:100160000895FC01538D448D252F30E0842F90E0BD
:10017000821B930B541710F0CF96089501970895A2
:10018000FC01918D828D981761F0A28DAE0FBF2F6B
:10019000B11D5D968C91928D9F5F9F73928F90E0C1
:1001A00008958FEF9FEF0895FC01918D828D981730
:1001B00031F0828DE80FF11D858D90E008958FEF6D
:1001C0009FEF0895FC01918D228D892F90E0805C36
:1001D0009F4F821B91098F73992708958BE592E0B9
:1001E0000E94E20021E0892B09F420E0822F08958B
:1001F00080E090E0892B29F00E94EE0081110C94A0
:1002000000000895FC01A48DA80FB92FB11DA35AB9
:10021000BF4F2C91848D90E001968F739927848F26
:10022000A689B7892C93A089B1898C918370806449
:100230008C93938D848D981306C00288F389E02DEA
:1002400080818F7D80830895EF92FF920F931F939B
:10025000CF93DF93EC0181E0888F9B8D8C8D981379
:100260001AC0E889F989808185FF15C09FB7F89485
:10027000EE89FF896083E889F989808183708064D1
:1002800080839FBF81E090E0DF91CF911F910F911C
:10029000FF90EF900895F62E0B8D10E00F5F1F4F2B
:1002A0000F731127E02E8C8D8E110CC00FB607FC3A
:1002B000FACFE889F989808185FFF5CFCE010E94C8
:1002C0000201F1CFEB8DEC0FFD2FF11DE35AFF4F33
:1002D000F0829FB7F8940B8FEA89FB898081806256
:1002E000CFCFCF93DF93EC01888D8823B9F0AA8913
:1002F000BB89E889F9898C9185FD03C0808186FDE1
:100300000DC00FB607FCF7CF8C9185FFF2CF80812F
:1003100085FFEDCFCE010E940201E9CFDF91CF91A1
:10032000089590E0FC01E656FF4F2491FC01EA5746
:10033000FF4F3491FC01EE58FF4FE491EE23C9F0DA
:10034000222339F0233001F1A8F4213019F12230B1
:1003500029F1F0E0EE0FFF1FE859FF4FA591B4918E
:100360008FB7F894EC91611126C030953E233C93F1
:100370008FBF08952730A9F02830C9F0243049F7FD
:10038000809180008F7D03C0809180008F77809363
:100390008000DFCF84B58F7784BDDBCF84B58F7DC0
:1003A000FBCF8091B0008F778093B000D2CF809147
:1003B000B0008F7DF9CF3E2BDACF3FB7F894809114
:1003C000010290910202A0910302B091040226B5AD
:1003D000A89B05C02F3F19F00196A11DB11D3FBF7D
:1003E000BA2FA92F982F8827BC01CD01620F711D4C
:1003F000811D911D42E0660F771F881F991F4A9546
:10040000D1F708952091D901260F3327331F2132C8
:100410003105ECF420913102FC0190E080E02430C1
:1004200069F082E00895A091D9012191AC0147546F
:100430005E4FA40FB52FB11D2C930196861798F32C
:100440008091D901680F6093D90180E0089581E01F
:1004500008951092310281E08093300210920B02D5
:1004600061E082E10E94910161E083E10E949101DB
:10047000E9EBF0E080818E7F808380818D7F8083B7
:1004800088E48093B80085E48093BC000895CF93FE
:10049000DF9391E09093B8018823B9F0C091B80040
:1004A000D091BA008091BC008A7B8093BC0060E050
:1004B00082E10E94910160E083E10E9491010E942B
:1004C0002902D093BA00C093B800DF91CF9108956C
:1004D0000895E0910A0280910902E81730F4F0E0F3
:1004E000E856FE4F808190E008958FEF9FEF0895CA
:1004F00090910A02809109022FEF3FEF981748F47C
:10050000E92FF0E0E856FE4F208130E09F5F9093A6
:100510000A02C90108958091090290910A02891B7B
:10052000990B0895CF92DF92EF92FF920F931F9352
:10053000CF93DF937C01CB018A01209137022223E4
:1005400089F0EB016B01C40ED51ECC15DD0569F0F9
:100550006991D701ED91FC910190F081E02DC701E7
:100560000995F3CF642F0E940202C801DF91CF9159
:100570001F910F91FF90EF90DF90CF900895CF9350
:10058000DF931F92CDB7DEB7698320913702222314
:10059000F9F020915A02203258F021E030E0FC01BD
:1005A0003383228390E080E00F90DF91CF91089514
:1005B00080913802E82FF0E0E75CFD4F998190834D
:1005C0008F5F8093380280935A0281E090E0ECCFF5
:1005D00061E0CE0101960E940202F7CF90E080E038
:1005E0000895FC0101900020E9F73197AF01481B05
:1005F000590BBC018BE592E00C9484008F929F9282
:10060000AF92BF920F931F93CF93DF93CDB7DEB717
:10061000A1970FB6F894DEBF0FBECDBF19A242302E
:1006200008F44AE08E010F5D1F4F842E912CB12CEF
:10063000A12CA50194010E946707E62FB901CA0108
:10064000EA30F4F4E05DD801EE938D01232B242BE6
:10065000252B79F790E080E0109719F0CD010E94EA
:10066000F102A1960FB6F894DEBF0FBECDBFDF91A9
:10067000CF911F910F91BF90AF909F908F90089551
:10068000E95CE1CFCF93DF930E94F102EC0184E2B9
:1006900091E00E94F1028C0F9D1FDF91CF91089590
:1006A00085ED8093BC008091330290913402A0913B
:1006B0003502B09136020796A11DB11D23E0B69513
:1006C000A795979587952A95D1F72091BC0024FD91
:1006D00003C01092310208954091330250913402C8
:1006E0006091350270913602452B462B472B69F3FA
:1006F0000097A105B10541F025E32A95F1F7000027
:100700000197A109B109E1CF809132020C9447020F
:100710001F920F920FB60F9211242F933F934F9376
:100720005F936F937F938F939F93AF93BF93EF9359
:10073000FF938BE592E00E940201FF91EF91BF9140
:10074000AF919F918F917F916F915F914F913F9169
:100750002F910F900FBE0F901F9018951F920F9220
:100760000FB60F9211242F938F939F93EF93FF93C4
:10077000E0916B02F0916C028081E0917102F09146
:10078000720282FD1BC09081809174028F5F8F7313
:1007900020917502821741F0E0917402F0E0E55A71
:1007A000FD4F958F80937402FF91EF919F918F91F0
:1007B0002F910F900FBE0F901F9018958081F4CF4E
:1007C0001F920F920FB60F9211242F933F938F9386
:1007D0009F93AF93BF938091FD019091FE01A091F3
:1007E000FF01B09100023091FC0123E0230F2D376F
:1007F00058F50196A11DB11D2093FC018093FD01C8
:100800009093FE01A093FF01B0930002809101023A
:1008100090910202A0910302B09104020196A11DE1
:10082000B11D8093010290930202A0930302B09342
:100830000402BF91AF919F918F913F912F910F90A3
:100840000FBE0F901F90189526E8230F0296A11D4A
:10085000B11DD2CF1F920F920FB60F9211242F937A
:100860003F934F935F936F937F938F939F93AF9338
:10087000BF93EF93FF938091B900887F803609F48E
:100880004AC0F0F5883209F4A7C018F5803109F4A0
:100890009BC0B8F4882309F4F9C0883009F494C0E7
:1008A000FF91EF91BF91AF919F918F917F916F9148
:1008B0005F914F913F912F910F900FBE0F901F901E
:1008C0001895883109F488C0803251F780932F023F
:1008D00014C0803409F49DC040F48033B9F38833E8
:1008E000F9F680932F0285ECB0C0803509F485C0FD
:1008F000883509F496C0883499F60E945003D0CF09
:10090000883909F48CC038F5883729F050F48836D6
:1009100011F0803729F683E0809331021092FB01B9
:1009200057C0883809F47BC0803919F0803809F045
:10093000B7CF8091FB01803208F071C0E091FB01DC
:1009400081E08E0F8093FB018091BB00F0E0E552C7
:10095000FE4F80833DC0803B39F0E0F4803A09F4DB
:1009600079C0883A09F09CCF84E0809331021092DC
:10097000DA011092D901E0910702F091080209957D
:100980008091D90181110FC081E08093D90110922B
:10099000B90109C0803C09F4A6CF883C09F4A3CF73
:1009A000883B09F07DCFE091DA0181E08E0F8093E2
:1009B000DA01F0E0E754FE4F80818093BB00909114
:1009C000DA018091D90129C080910C028093BB008B
:1009D00085EC8093BC0064CF90912E0280912D0213
:1009E000981758F5E0912E0281E08E0F80932E0229
:1009F000F0E0E35FFD4F8081E9CFE0912E0281E0DE
:100A00008E0F80932E028091BB00F0E0E35FFD4FDC
:100A1000808390912E0280912D029817C8F285E86C
:100A2000D8CFE0912E0281E08E0F80932E0280912C
:100A3000BB00F0E0E35FFD4F8083809130028111C5
:100A40005CCF81E080930B0284EA8093BC0010921B
:100A5000310226CF85EC8093BC0010923102809148
:100A6000FB01803230F4E091FB01F0E0E552FE4FF3
:100A700010826091FB0170E0E0910502F0910602A6
:100A80008BED91E009951092FB010ACF10922F0295
:100A900034CFEBE5F2E01382128288EE93E0A0E01F
:100AA000B0E084839583A683B78324E031E031836B
:100AB000208325EC30E03587248724EC30E037872D
:100AC000268720EC30E0318B208B21EC30E0338B1B
:100AD000228B22EC30E0358B248B26EC30E0378BF8
:100AE000268B118E128E138E148EE8EFF2E0138295
:100AF000128284839583A683B78386E191E09183F4
:100B000080830895789484B5826084BD84B58160C3
:100B100084BD85B5826085BD85B5816085BD8091C8
:100B20006E00816080936E00109281008091810040
:100B30008260809381008091810081608093810038
:100B4000809180008160809380008091B1008460FA
:100B50008093B1008091B00081608093B00080915B
:100B60007A00846080937A0080917A00826080931A
:100B70007A0080917A00816080937A0080917A0077
:100B8000806880937A001092C10010920A0210923D
:100B900009021092380210925A020E94290282E839
:100BA00090E0909308028093070283E890E090938E
:100BB000060280930502E0916B02F0916C0282E0E4
:100BC0008083E0916702F09168021082E0916902EF
:100BD000F0916A028FEC808310927302E0916F02B1
:100BE000F091700286E08083E0916D02F0916E02D8
:100BF000808180618083E0916D02F0916E0280813E
:100C000088608083E0916D02F0916E02808180683F
:100C10008083E0916D02F0916E0280818F7D8083F0
:100C200087E291E00E94420325EE222E35EC332E1E
:100C300040E0A42E40E0B42E52E0852E99249A94F0
:100C400084E391E00E944203C12CD12C7601C3942D
:100C5000D0E0C0E001E01C2D00933702C0925902A1
:100C60001092380210925A020E94DD012B013C01C1
:100C700080913102811162C0809231020093300272
:100C800090922F0210922E0210922D0210920C02BE
:100C900090910C02812F880F892B80930C028091F8
:100CA0000B02813009F0D1C010920B020E94DD01CD
:100CB0002B013C0180910C028093BB008091330298
:100CC00090913402A0913502B0913602892B8A2B83
:100CD0008B2BA1F00E94DD01209133023091340270
:100CE00040913502509136026419750986099709B9
:100CF000261737074807590708F441C08091BC0000
:100D000083FDD8CF3092BC000E94DD012B013C0155
:100D100080913102823009F49BC080912F028F3F75
:100D200009F4B8C080912F02803209F4B5C08091D7
:100D30002F02803309F4B2C084E026C080913302D0
:100D400090913402A0913502B0913602892B8A2B02
:100D50008B2B09F48DCF0E94DD012091330230915D
:100D600034024091350250913602641975098609A2
:100D70009709261737074807590708F079CF809158
:100D800032020E94470285E01092380210925A0205
:100D900010923702811184C080E491E00E94F10238
:100DA000103120F48FE591E00E94F10240E1C7018B
:100DB000B6010E94FE0284E291E00E94F1022196B7
:100DC0002FEFC21AD20AE20AF20A8FE7C816D1043C
:100DD000E104F10409F03FCF8CE791E0CD2B11F055
:100DE00082E991E00E9442030E94DD012B013C0157
:100DF00088E8C82E83E1D82EE12CF12C0E94DD0179
:100E00006419750986099709683E73408105910543
:100E1000A8F321E0C21AD108E108F10888EE480ED3
:100E200083E0581E611C711CC114D104E104F1045B
:100E300029F7A114B10409F403CF0E94EE0088231E
:100E400009F4FECE0E940000FBCE2092BC005CCFD5
:100E50008091330290913402A0913502B091360214
:100E6000892B8A2B8B2B09F453CF0E94DD01209113
:100E700033023091340240913502509136026419A8
:100E8000750986099709261737074807590708F093
:100E90003FCF75CF80E078CF82E076CF83E074CF0C
:100EA000843009F08DCF81E691E00E94F10210318B
:100EB00020F48FE591E00E94F10240E1C701B60104
:100EC0000E94FE0284E291E00E94F10279CFA1E249
:100ED0001A2EAA1BBB1BFD010DC0AA1FBB1FEE1FB4
:100EE000FF1FA217B307E407F50720F0A21BB30BFF
:100EF000E40BF50B661F771F881F991F1A9469F77B
:100F000060957095809590959B01AC01BD01CF01D6
:100F10000895EE0FFF1F0590F491E02D0994F894C9
:020F2000FFCF01
:100F22000000000024018400B1007101E200C00051
:100F3200D40000000000BF029202EE0268028B029F
:100F4200780269020D0A000A493243205363616E36
:100F52006E6572005363616E6E696E672E2E2E008F
:100F62004932432064657669636520666F756E64F5
:100F7200206174206164647265737320307800307C
:100F820000556E6B6E6F77206572726F722061749E
:100F92002061646472657373203078004E6F20495B
:100FA2003243206465766963657320666F756E648B
:080FB2000A00646F6E650A007D
:00000001FF
